{
  "_format": "hh-sol-artifact-1",
  "contractName": "NFTRandomManager",
  "sourceName": "contracts/NFTRandomManager.sol",
  "abi": [
    {
      "inputs": [
        {
          "internalType": "uint64",
          "name": "subscriptionId",
          "type": "uint64"
        }
      ],
      "stateMutability": "nonpayable",
      "type": "constructor"
    },
    {
      "inputs": [],
      "name": "AccessControlBadConfirmation",
      "type": "error"
    },
    {
      "inputs": [
        {
          "internalType": "address",
          "name": "account",
          "type": "address"
        },
        {
          "internalType": "bytes32",
          "name": "neededRole",
          "type": "bytes32"
        }
      ],
      "name": "AccessControlUnauthorizedAccount",
      "type": "error"
    },
    {
      "inputs": [
        {
          "internalType": "address",
          "name": "have",
          "type": "address"
        },
        {
          "internalType": "address",
          "name": "want",
          "type": "address"
        }
      ],
      "name": "OnlyCoordinatorCanFulfill",
      "type": "error"
    },
    {
      "anonymous": false,
      "inputs": [
        {
          "indexed": false,
          "internalType": "uint256",
          "name": "requestId",
          "type": "uint256"
        },
        {
          "indexed": false,
          "internalType": "uint256[]",
          "name": "randomWords",
          "type": "uint256[]"
        }
      ],
      "name": "RequestFulfilled",
      "type": "event"
    },
    {
      "anonymous": false,
      "inputs": [
        {
          "indexed": false,
          "internalType": "uint256",
          "name": "requestId",
          "type": "uint256"
        },
        {
          "indexed": false,
          "internalType": "uint32",
          "name": "numWords",
          "type": "uint32"
        }
      ],
      "name": "RequestSent",
      "type": "event"
    },
    {
      "anonymous": false,
      "inputs": [
        {
          "indexed": true,
          "internalType": "bytes32",
          "name": "role",
          "type": "bytes32"
        },
        {
          "indexed": true,
          "internalType": "bytes32",
          "name": "previousAdminRole",
          "type": "bytes32"
        },
        {
          "indexed": true,
          "internalType": "bytes32",
          "name": "newAdminRole",
          "type": "bytes32"
        }
      ],
      "name": "RoleAdminChanged",
      "type": "event"
    },
    {
      "anonymous": false,
      "inputs": [
        {
          "indexed": true,
          "internalType": "bytes32",
          "name": "role",
          "type": "bytes32"
        },
        {
          "indexed": true,
          "internalType": "address",
          "name": "account",
          "type": "address"
        },
        {
          "indexed": true,
          "internalType": "address",
          "name": "sender",
          "type": "address"
        }
      ],
      "name": "RoleGranted",
      "type": "event"
    },
    {
      "anonymous": false,
      "inputs": [
        {
          "indexed": true,
          "internalType": "bytes32",
          "name": "role",
          "type": "bytes32"
        },
        {
          "indexed": true,
          "internalType": "address",
          "name": "account",
          "type": "address"
        },
        {
          "indexed": true,
          "internalType": "address",
          "name": "sender",
          "type": "address"
        }
      ],
      "name": "RoleRevoked",
      "type": "event"
    },
    {
      "inputs": [],
      "name": "DEFAULT_ADMIN_ROLE",
      "outputs": [
        {
          "internalType": "bytes32",
          "name": "",
          "type": "bytes32"
        }
      ],
      "stateMutability": "view",
      "type": "function"
    },
    {
      "inputs": [],
      "name": "NFT_RANDOM_MANAGER",
      "outputs": [
        {
          "internalType": "bytes32",
          "name": "",
          "type": "bytes32"
        }
      ],
      "stateMutability": "view",
      "type": "function"
    },
    {
      "inputs": [],
      "name": "getNFTRandomManagerRole",
      "outputs": [
        {
          "internalType": "bytes32",
          "name": "",
          "type": "bytes32"
        }
      ],
      "stateMutability": "pure",
      "type": "function"
    },
    {
      "inputs": [
        {
          "internalType": "uint256",
          "name": "_requestId",
          "type": "uint256"
        }
      ],
      "name": "getRequest",
      "outputs": [
        {
          "components": [
            {
              "internalType": "bool",
              "name": "fulfilled",
              "type": "bool"
            },
            {
              "internalType": "bool",
              "name": "exists",
              "type": "bool"
            },
            {
              "internalType": "uint256[]",
              "name": "randomWords",
              "type": "uint256[]"
            },
            {
              "internalType": "address",
              "name": "requestor",
              "type": "address"
            },
            {
              "internalType": "uint256",
              "name": "tokenId",
              "type": "uint256"
            }
          ],
          "internalType": "struct NFTRandomManager.RequestStatus",
          "name": "rs",
          "type": "tuple"
        }
      ],
      "stateMutability": "nonpayable",
      "type": "function"
    },
    {
      "inputs": [
        {
          "internalType": "uint256",
          "name": "_requestId",
          "type": "uint256"
        }
      ],
      "name": "getRequestStatus",
      "outputs": [
        {
          "internalType": "bool",
          "name": "fulfilled",
          "type": "bool"
        },
        {
          "internalType": "uint256[]",
          "name": "randomWords",
          "type": "uint256[]"
        }
      ],
      "stateMutability": "view",
      "type": "function"
    },
    {
      "inputs": [
        {
          "internalType": "bytes32",
          "name": "role",
          "type": "bytes32"
        }
      ],
      "name": "getRoleAdmin",
      "outputs": [
        {
          "internalType": "bytes32",
          "name": "",
          "type": "bytes32"
        }
      ],
      "stateMutability": "view",
      "type": "function"
    },
    {
      "inputs": [
        {
          "internalType": "bytes32",
          "name": "role",
          "type": "bytes32"
        },
        {
          "internalType": "address",
          "name": "account",
          "type": "address"
        }
      ],
      "name": "grantRole",
      "outputs": [],
      "stateMutability": "nonpayable",
      "type": "function"
    },
    {
      "inputs": [
        {
          "internalType": "bytes32",
          "name": "role",
          "type": "bytes32"
        },
        {
          "internalType": "address",
          "name": "account",
          "type": "address"
        }
      ],
      "name": "hasRole",
      "outputs": [
        {
          "internalType": "bool",
          "name": "",
          "type": "bool"
        }
      ],
      "stateMutability": "view",
      "type": "function"
    },
    {
      "inputs": [
        {
          "internalType": "uint256",
          "name": "",
          "type": "uint256"
        }
      ],
      "name": "lastRandomWords",
      "outputs": [
        {
          "internalType": "uint256",
          "name": "",
          "type": "uint256"
        }
      ],
      "stateMutability": "view",
      "type": "function"
    },
    {
      "inputs": [],
      "name": "lastRequestId",
      "outputs": [
        {
          "internalType": "uint256",
          "name": "",
          "type": "uint256"
        }
      ],
      "stateMutability": "view",
      "type": "function"
    },
    {
      "inputs": [
        {
          "internalType": "uint256",
          "name": "requestId",
          "type": "uint256"
        },
        {
          "internalType": "uint256[]",
          "name": "randomWords",
          "type": "uint256[]"
        }
      ],
      "name": "rawFulfillRandomWords",
      "outputs": [],
      "stateMutability": "nonpayable",
      "type": "function"
    },
    {
      "inputs": [
        {
          "internalType": "bytes32",
          "name": "role",
          "type": "bytes32"
        },
        {
          "internalType": "address",
          "name": "callerConfirmation",
          "type": "address"
        }
      ],
      "name": "renounceRole",
      "outputs": [],
      "stateMutability": "nonpayable",
      "type": "function"
    },
    {
      "inputs": [
        {
          "internalType": "uint256",
          "name": "",
          "type": "uint256"
        }
      ],
      "name": "requestIds",
      "outputs": [
        {
          "internalType": "uint256",
          "name": "",
          "type": "uint256"
        }
      ],
      "stateMutability": "view",
      "type": "function"
    },
    {
      "inputs": [
        {
          "internalType": "address",
          "name": "requestor",
          "type": "address"
        },
        {
          "internalType": "uint256",
          "name": "tokenId",
          "type": "uint256"
        }
      ],
      "name": "requestRandomWords",
      "outputs": [
        {
          "internalType": "uint256",
          "name": "requestId",
          "type": "uint256"
        }
      ],
      "stateMutability": "nonpayable",
      "type": "function"
    },
    {
      "inputs": [
        {
          "internalType": "bytes32",
          "name": "role",
          "type": "bytes32"
        },
        {
          "internalType": "address",
          "name": "account",
          "type": "address"
        }
      ],
      "name": "revokeRole",
      "outputs": [],
      "stateMutability": "nonpayable",
      "type": "function"
    },
    {
      "inputs": [
        {
          "internalType": "uint256",
          "name": "",
          "type": "uint256"
        }
      ],
      "name": "s_requests",
      "outputs": [
        {
          "internalType": "bool",
          "name": "fulfilled",
          "type": "bool"
        },
        {
          "internalType": "bool",
          "name": "exists",
          "type": "bool"
        },
        {
          "internalType": "address",
          "name": "requestor",
          "type": "address"
        },
        {
          "internalType": "uint256",
          "name": "tokenId",
          "type": "uint256"
        }
      ],
      "stateMutability": "view",
      "type": "function"
    },
    {
      "inputs": [],
      "name": "s_subscriptionId",
      "outputs": [
        {
          "internalType": "uint64",
          "name": "",
          "type": "uint64"
        }
      ],
      "stateMutability": "view",
      "type": "function"
    },
    {
      "inputs": [
        {
          "internalType": "address",
          "name": "to",
          "type": "address"
        },
        {
          "internalType": "uint256",
          "name": "charId",
          "type": "uint256"
        }
      ],
      "name": "safeMint",
      "outputs": [],
      "stateMutability": "nonpayable",
      "type": "function"
    },
    {
      "inputs": [
        {
          "internalType": "bytes4",
          "name": "interfaceId",
          "type": "bytes4"
        }
      ],
      "name": "supportsInterface",
      "outputs": [
        {
          "internalType": "bool",
          "name": "",
          "type": "bool"
        }
      ],
      "stateMutability": "view",
      "type": "function"
    }
  ],
  "bytecode": "0x60a0604052732ed832ba664535e5886b75d64c46eb9a228c2610600460006101000a81548173ffffffffffffffffffffffffffffffffffffffff021916908373ffffffffffffffffffffffffffffffffffffffff1602179055507f354d2f95da55398f44b7cff77da56283d9c6c829a4bdf1bbcaf2ad6a4d081f6160001b600555622625a0600660006101000a81548163ffffffff021916908363ffffffff1602179055506003600660046101000a81548161ffff021916908361ffff16021790555060016006806101000a81548163ffffffff021916908363ffffffff160217905550348015620000f057600080fd5b5060405162001ed838038062001ed88339818101604052810190620001169190620003ed565b600460009054906101000a900473ffffffffffffffffffffffffffffffffffffffff168073ffffffffffffffffffffffffffffffffffffffff1660808173ffffffffffffffffffffffffffffffffffffffff168152505050620001836000801b336200022a60201b60201c565b50600460009054906101000a900473ffffffffffffffffffffffffffffffffffffffff16600360006101000a81548173ffffffffffffffffffffffffffffffffffffffff021916908373ffffffffffffffffffffffffffffffffffffffff16021790555080600a60006101000a81548167ffffffffffffffff021916908367ffffffffffffffff160217905550620002233360006200032d60201b60201c565b506200041f565b60006200023e83836200033160201b60201c565b6200032257600160008085815260200190815260200160002060000160008473ffffffffffffffffffffffffffffffffffffffff1673ffffffffffffffffffffffffffffffffffffffff16815260200190815260200160002060006101000a81548160ff021916908315150217905550620002be6200039b60201b60201c565b73ffffffffffffffffffffffffffffffffffffffff168273ffffffffffffffffffffffffffffffffffffffff16847f2f8788117e7eff1d82e926ec794901d17c78024a50270940304540a733656f0d60405160405180910390a46001905062000327565b600090505b92915050565b5050565b600080600084815260200190815260200160002060000160008373ffffffffffffffffffffffffffffffffffffffff1673ffffffffffffffffffffffffffffffffffffffff16815260200190815260200160002060009054906101000a900460ff16905092915050565b600033905090565b600080fd5b600067ffffffffffffffff82169050919050565b620003c781620003a8565b8114620003d357600080fd5b50565b600081519050620003e781620003bc565b92915050565b600060208284031215620004065762000405620003a3565b5b60006200041684828501620003d6565b91505092915050565b608051611a96620004426000396000818161047801526104cc0152611a966000f3fe608060405234801561001057600080fd5b50600436106101215760003560e01c806391d14854116100ad578063c58343ef11610071578063c58343ef14610331578063d547741f14610361578063d8a4676f1461037d578063e12acc34146103ae578063fc2a88c3146103de57610121565b806391d1485414610276578063945f8239146102a6578063a1448194146102c4578063a168fa89146102e0578063a217fddf1461031357610121565b806336568abe116100f457806336568abe146101be5780633eb271d0146101da5780638796ba8c146101f85780638ac0002114610228578063900fc8691461024657610121565b806301ffc9a7146101265780631fe543e314610156578063248a9ca3146101725780632f2ff15d146101a2575b600080fd5b610140600480360381019061013b919061118a565b6103fc565b60405161014d91906111d2565b60405180910390f35b610170600480360381019061016b919061137c565b610476565b005b61018c6004803603810190610187919061140e565b610536565b604051610199919061144a565b60405180910390f35b6101bc60048036038101906101b791906114c3565b610555565b005b6101d860048036038101906101d391906114c3565b610577565b005b6101e26105f2565b6040516101ef919061144a565b60405180910390f35b610212600480360381019061020d9190611503565b61061a565b60405161021f919061153f565b60405180910390f35b61023061063e565b60405161023d919061157d565b60405180910390f35b610260600480360381019061025b9190611503565b610658565b60405161026d919061153f565b60405180910390f35b610290600480360381019061028b91906114c3565b61067c565b60405161029d91906111d2565b60405180910390f35b6102ae6106e6565b6040516102bb919061144a565b60405180910390f35b6102de60048036038101906102d99190611598565b61070a565b005b6102fa60048036038101906102f59190611503565b61070e565b60405161030a94939291906115e7565b60405180910390f35b61031b610778565b604051610328919061144a565b60405180910390f35b61034b60048036038101906103469190611503565b61077f565b604051610358919061177e565b60405180910390f35b61037b600480360381019061037691906114c3565b61089a565b005b61039760048036038101906103929190611503565b6108bc565b6040516103a592919061180f565b60405180910390f35b6103c860048036038101906103c39190611598565b6108c5565b6040516103d5919061153f565b60405180910390f35b6103e6610bb3565b6040516103f3919061153f565b60405180910390f35b60007f7965db0b000000000000000000000000000000000000000000000000000000007bffffffffffffffffffffffffffffffffffffffffffffffffffffffff1916827bffffffffffffffffffffffffffffffffffffffffffffffffffffffff1916148061046f575061046e82610bb9565b5b9050919050565b7f000000000000000000000000000000000000000000000000000000000000000073ffffffffffffffffffffffffffffffffffffffff163373ffffffffffffffffffffffffffffffffffffffff161461052857337f00000000000000000000000000000000000000000000000000000000000000006040517f1cf993f400000000000000000000000000000000000000000000000000000000815260040161051f92919061183f565b60405180910390fd5b6105328282610c23565b5050565b6000806000838152602001908152602001600020600101549050919050565b61055e82610536565b61056781610e1b565b6105718383610e2f565b50505050565b61057f610f20565b73ffffffffffffffffffffffffffffffffffffffff168173ffffffffffffffffffffffffffffffffffffffff16146105e3576040517f6697b23200000000000000000000000000000000000000000000000000000000815260040160405180910390fd5b6105ed8282610f28565b505050565b60007fba97d1e7c7cac970a86143e4a79d94ccf81090bb6c8dfb9571552cb2226d115c905090565b6007818154811061062a57600080fd5b906000526020600020016000915090505481565b600a60009054906101000a900467ffffffffffffffff1681565b6009818154811061066857600080fd5b906000526020600020016000915090505481565b600080600084815260200190815260200160002060000160008373ffffffffffffffffffffffffffffffffffffffff1673ffffffffffffffffffffffffffffffffffffffff16815260200190815260200160002060009054906101000a900460ff16905092915050565b7fba97d1e7c7cac970a86143e4a79d94ccf81090bb6c8dfb9571552cb2226d115c81565b5050565b60026020528060005260406000206000915090508060000160009054906101000a900460ff16908060000160019054906101000a900460ff16908060020160009054906101000a900473ffffffffffffffffffffffffffffffffffffffff16908060030154905084565b6000801b81565b61078761106b565b600260008381526020019081526020016000206040518060a00160405290816000820160009054906101000a900460ff161515151581526020016000820160019054906101000a900460ff161515151581526020016001820180548060200260200160405190810160405280929190818152602001828054801561082a57602002820191906000526020600020905b815481526020019060010190808311610816575b505050505081526020016002820160009054906101000a900473ffffffffffffffffffffffffffffffffffffffff1673ffffffffffffffffffffffffffffffffffffffff1673ffffffffffffffffffffffffffffffffffffffff1681526020016003820154815250509050919050565b6108a382610536565b6108ac81610e1b565b6108b68383610f28565b50505050565b60006060915091565b60007fba97d1e7c7cac970a86143e4a79d94ccf81090bb6c8dfb9571552cb2226d115c6108f181610e1b565b600360009054906101000a900473ffffffffffffffffffffffffffffffffffffffff1673ffffffffffffffffffffffffffffffffffffffff16635d3b1d30600554600a60009054906101000a900467ffffffffffffffff16600660049054906101000a900461ffff16600660009054906101000a900463ffffffff1660068054906101000a900463ffffffff166040518663ffffffff1660e01b815260040161099e9594939291906118a4565b6020604051808303816000875af11580156109bd573d6000803e3d6000fd5b505050506040513d601f19601f820116820180604052508101906109e1919061190c565b91506040518060a00160405280600015158152602001600115158152602001600067ffffffffffffffff811115610a1b57610a1a611239565b5b604051908082528060200260200182016040528015610a495781602001602082028036833780820191505090505b5081526020018573ffffffffffffffffffffffffffffffffffffffff168152602001848152506002600084815260200190815260200160002060008201518160000160006101000a81548160ff02191690831515021790555060208201518160000160016101000a81548160ff0219169083151502179055506040820151816001019080519060200190610ade9291906110b4565b5060608201518160020160006101000a81548173ffffffffffffffffffffffffffffffffffffffff021916908373ffffffffffffffffffffffffffffffffffffffff160217905550608082015181600301559050506007829080600181540180825580915050600190039060005260206000200160009091909190915055816008819055507fcc58b13ad3eab50626c6a6300b1d139cd6ebb1688a7cced9461c2f7e762665ee8260068054906101000a900463ffffffff16604051610ba4929190611939565b60405180910390a15092915050565b60085481565b60007f01ffc9a7000000000000000000000000000000000000000000000000000000007bffffffffffffffffffffffffffffffffffffffffffffffffffffffff1916827bffffffffffffffffffffffffffffffffffffffffffffffffffffffff1916149050919050565b6002600083815260200190815260200160002060000160019054906101000a900460ff16610c86576040517f08c379a0000000000000000000000000000000000000000000000000000000008152600401610c7d906119bf565b60405180910390fd5b60016002600084815260200190815260200160002060000160006101000a81548160ff02191690831515021790555080600260008481526020019081526020016000206001019080519060200190610cdf9291906110b4565b506002600083815260200190815260200160002060020160009054906101000a900473ffffffffffffffffffffffffffffffffffffffff16600160006101000a81548173ffffffffffffffffffffffffffffffffffffffff021916908373ffffffffffffffffffffffffffffffffffffffff160217905550600160009054906101000a900473ffffffffffffffffffffffffffffffffffffffff1673ffffffffffffffffffffffffffffffffffffffff1663d868f4c0600260008581526020019081526020016000206003015483600081518110610dc057610dbf6119df565b5b60200260200101516040518363ffffffff1660e01b8152600401610de5929190611a0e565b600060405180830381600087803b158015610dff57600080fd5b505af1158015610e13573d6000803e3d6000fd5b505050505050565b610e2c81610e27610f20565b61101a565b50565b6000610e3b838361067c565b610f1557600160008085815260200190815260200160002060000160008473ffffffffffffffffffffffffffffffffffffffff1673ffffffffffffffffffffffffffffffffffffffff16815260200190815260200160002060006101000a81548160ff021916908315150217905550610eb2610f20565b73ffffffffffffffffffffffffffffffffffffffff168273ffffffffffffffffffffffffffffffffffffffff16847f2f8788117e7eff1d82e926ec794901d17c78024a50270940304540a733656f0d60405160405180910390a460019050610f1a565b600090505b92915050565b600033905090565b6000610f34838361067c565b1561100f57600080600085815260200190815260200160002060000160008473ffffffffffffffffffffffffffffffffffffffff1673ffffffffffffffffffffffffffffffffffffffff16815260200190815260200160002060006101000a81548160ff021916908315150217905550610fac610f20565b73ffffffffffffffffffffffffffffffffffffffff168273ffffffffffffffffffffffffffffffffffffffff16847ff6391f5c32d9c69d2a47ea670b442974b53935d1edc7fd64eb21e047a839171b60405160405180910390a460019050611014565b600090505b92915050565b611024828261067c565b6110675780826040517fe2517d3f00000000000000000000000000000000000000000000000000000000815260040161105e929190611a37565b60405180910390fd5b5050565b6040518060a0016040528060001515815260200160001515815260200160608152602001600073ffffffffffffffffffffffffffffffffffffffff168152602001600081525090565b8280548282559060005260206000209081019282156110f0579160200282015b828111156110ef5782518255916020019190600101906110d4565b5b5090506110fd9190611101565b5090565b5b8082111561111a576000816000905550600101611102565b5090565b6000604051905090565b600080fd5b600080fd5b60007fffffffff0000000000000000000000000000000000000000000000000000000082169050919050565b61116781611132565b811461117257600080fd5b50565b6000813590506111848161115e565b92915050565b6000602082840312156111a05761119f611128565b5b60006111ae84828501611175565b91505092915050565b60008115159050919050565b6111cc816111b7565b82525050565b60006020820190506111e760008301846111c3565b92915050565b6000819050919050565b611200816111ed565b811461120b57600080fd5b50565b60008135905061121d816111f7565b92915050565b600080fd5b6000601f19601f8301169050919050565b7f4e487b7100000000000000000000000000000000000000000000000000000000600052604160045260246000fd5b61127182611228565b810181811067ffffffffffffffff821117156112905761128f611239565b5b80604052505050565b60006112a361111e565b90506112af8282611268565b919050565b600067ffffffffffffffff8211156112cf576112ce611239565b5b602082029050602081019050919050565b600080fd5b60006112f86112f3846112b4565b611299565b9050808382526020820190506020840283018581111561131b5761131a6112e0565b5b835b818110156113445780611330888261120e565b84526020840193505060208101905061131d565b5050509392505050565b600082601f83011261136357611362611223565b5b81356113738482602086016112e5565b91505092915050565b6000806040838503121561139357611392611128565b5b60006113a18582860161120e565b925050602083013567ffffffffffffffff8111156113c2576113c161112d565b5b6113ce8582860161134e565b9150509250929050565b6000819050919050565b6113eb816113d8565b81146113f657600080fd5b50565b600081359050611408816113e2565b92915050565b60006020828403121561142457611423611128565b5b6000611432848285016113f9565b91505092915050565b611444816113d8565b82525050565b600060208201905061145f600083018461143b565b92915050565b600073ffffffffffffffffffffffffffffffffffffffff82169050919050565b600061149082611465565b9050919050565b6114a081611485565b81146114ab57600080fd5b50565b6000813590506114bd81611497565b92915050565b600080604083850312156114da576114d9611128565b5b60006114e8858286016113f9565b92505060206114f9858286016114ae565b9150509250929050565b60006020828403121561151957611518611128565b5b60006115278482850161120e565b91505092915050565b611539816111ed565b82525050565b60006020820190506115546000830184611530565b92915050565b600067ffffffffffffffff82169050919050565b6115778161155a565b82525050565b6000602082019050611592600083018461156e565b92915050565b600080604083850312156115af576115ae611128565b5b60006115bd858286016114ae565b92505060206115ce8582860161120e565b9150509250929050565b6115e181611485565b82525050565b60006080820190506115fc60008301876111c3565b61160960208301866111c3565b61161660408301856115d8565b6116236060830184611530565b95945050505050565b611635816111b7565b82525050565b600081519050919050565b600082825260208201905092915050565b6000819050602082019050919050565b611670816111ed565b82525050565b60006116828383611667565b60208301905092915050565b6000602082019050919050565b60006116a68261163b565b6116b08185611646565b93506116bb83611657565b8060005b838110156116ec5781516116d38882611676565b97506116de8361168e565b9250506001810190506116bf565b5085935050505092915050565b61170281611485565b82525050565b600060a083016000830151611720600086018261162c565b506020830151611733602086018261162c565b506040830151848203604086015261174b828261169b565b915050606083015161176060608601826116f9565b5060808301516117736080860182611667565b508091505092915050565b600060208201905081810360008301526117988184611708565b905092915050565b600082825260208201905092915050565b60006117bc8261163b565b6117c681856117a0565b93506117d183611657565b8060005b838110156118025781516117e98882611676565b97506117f48361168e565b9250506001810190506117d5565b5085935050505092915050565b600060408201905061182460008301856111c3565b818103602083015261183681846117b1565b90509392505050565b600060408201905061185460008301856115d8565b61186160208301846115d8565b9392505050565b600061ffff82169050919050565b61187f81611868565b82525050565b600063ffffffff82169050919050565b61189e81611885565b82525050565b600060a0820190506118b9600083018861143b565b6118c6602083018761156e565b6118d36040830186611876565b6118e06060830185611895565b6118ed6080830184611895565b9695505050505050565b600081519050611906816111f7565b92915050565b60006020828403121561192257611921611128565b5b6000611930848285016118f7565b91505092915050565b600060408201905061194e6000830185611530565b61195b6020830184611895565b9392505050565b600082825260208201905092915050565b7f72657175657374206e6f7420666f756e64000000000000000000000000000000600082015250565b60006119a9601183611962565b91506119b482611973565b602082019050919050565b600060208201905081810360008301526119d88161199c565b9050919050565b7f4e487b7100000000000000000000000000000000000000000000000000000000600052603260045260246000fd5b6000604082019050611a236000830185611530565b611a306020830184611530565b9392505050565b6000604082019050611a4c60008301856115d8565b611a59602083018461143b565b939250505056fea2646970667358221220713360a5152ee8e6a871d74c765bce033ea5409ab3727494b4b6a760d961faaa64736f6c63430008180033",
  "linkReferences": {},
  "deployedLinkReferences": {}
}