{
  "_format": "hh-sol-artifact-1",
  "contractName": "BasicNFT",
  "sourceName": "contracts/BasicNFT.sol",
  "abi": [
    {
      "inputs": [
        {
          "internalType": "address",
          "name": "initialOwner",
          "type": "address"
        },
        {
          "internalType": "address",
          "name": "collectionAddress",
          "type": "address"
        },
        {
          "internalType": "address",
          "name": "nftRandomManagerAddress",
          "type": "address"
        }
      ],
      "stateMutability": "nonpayable",
      "type": "constructor"
    },
    {
      "inputs": [
        {
          "internalType": "address",
          "name": "sender",
          "type": "address"
        },
        {
          "internalType": "uint256",
          "name": "tokenId",
          "type": "uint256"
        },
        {
          "internalType": "address",
          "name": "owner",
          "type": "address"
        }
      ],
      "name": "ERC721IncorrectOwner",
      "type": "error"
    },
    {
      "inputs": [
        {
          "internalType": "address",
          "name": "operator",
          "type": "address"
        },
        {
          "internalType": "uint256",
          "name": "tokenId",
          "type": "uint256"
        }
      ],
      "name": "ERC721InsufficientApproval",
      "type": "error"
    },
    {
      "inputs": [
        {
          "internalType": "address",
          "name": "approver",
          "type": "address"
        }
      ],
      "name": "ERC721InvalidApprover",
      "type": "error"
    },
    {
      "inputs": [
        {
          "internalType": "address",
          "name": "operator",
          "type": "address"
        }
      ],
      "name": "ERC721InvalidOperator",
      "type": "error"
    },
    {
      "inputs": [
        {
          "internalType": "address",
          "name": "owner",
          "type": "address"
        }
      ],
      "name": "ERC721InvalidOwner",
      "type": "error"
    },
    {
      "inputs": [
        {
          "internalType": "address",
          "name": "receiver",
          "type": "address"
        }
      ],
      "name": "ERC721InvalidReceiver",
      "type": "error"
    },
    {
      "inputs": [
        {
          "internalType": "address",
          "name": "sender",
          "type": "address"
        }
      ],
      "name": "ERC721InvalidSender",
      "type": "error"
    },
    {
      "inputs": [
        {
          "internalType": "uint256",
          "name": "tokenId",
          "type": "uint256"
        }
      ],
      "name": "ERC721NonexistentToken",
      "type": "error"
    },
    {
      "inputs": [
        {
          "internalType": "address",
          "name": "owner",
          "type": "address"
        }
      ],
      "name": "OwnableInvalidOwner",
      "type": "error"
    },
    {
      "inputs": [
        {
          "internalType": "address",
          "name": "account",
          "type": "address"
        }
      ],
      "name": "OwnableUnauthorizedAccount",
      "type": "error"
    },
    {
      "anonymous": false,
      "inputs": [
        {
          "indexed": true,
          "internalType": "address",
          "name": "owner",
          "type": "address"
        },
        {
          "indexed": true,
          "internalType": "address",
          "name": "approved",
          "type": "address"
        },
        {
          "indexed": true,
          "internalType": "uint256",
          "name": "tokenId",
          "type": "uint256"
        }
      ],
      "name": "Approval",
      "type": "event"
    },
    {
      "anonymous": false,
      "inputs": [
        {
          "indexed": true,
          "internalType": "address",
          "name": "owner",
          "type": "address"
        },
        {
          "indexed": true,
          "internalType": "address",
          "name": "operator",
          "type": "address"
        },
        {
          "indexed": false,
          "internalType": "bool",
          "name": "approved",
          "type": "bool"
        }
      ],
      "name": "ApprovalForAll",
      "type": "event"
    },
    {
      "anonymous": false,
      "inputs": [
        {
          "indexed": true,
          "internalType": "address",
          "name": "previousOwner",
          "type": "address"
        },
        {
          "indexed": true,
          "internalType": "address",
          "name": "newOwner",
          "type": "address"
        }
      ],
      "name": "OwnershipTransferred",
      "type": "event"
    },
    {
      "anonymous": false,
      "inputs": [
        {
          "indexed": true,
          "internalType": "address",
          "name": "from",
          "type": "address"
        },
        {
          "indexed": true,
          "internalType": "address",
          "name": "to",
          "type": "address"
        },
        {
          "indexed": true,
          "internalType": "uint256",
          "name": "tokenId",
          "type": "uint256"
        }
      ],
      "name": "Transfer",
      "type": "event"
    },
    {
      "inputs": [],
      "name": "_nextTokenId",
      "outputs": [
        {
          "internalType": "uint256",
          "name": "",
          "type": "uint256"
        }
      ],
      "stateMutability": "view",
      "type": "function"
    },
    {
      "inputs": [
        {
          "internalType": "address",
          "name": "to",
          "type": "address"
        },
        {
          "internalType": "uint256",
          "name": "tokenId",
          "type": "uint256"
        }
      ],
      "name": "approve",
      "outputs": [],
      "stateMutability": "nonpayable",
      "type": "function"
    },
    {
      "inputs": [
        {
          "internalType": "address",
          "name": "owner",
          "type": "address"
        }
      ],
      "name": "balanceOf",
      "outputs": [
        {
          "internalType": "uint256",
          "name": "",
          "type": "uint256"
        }
      ],
      "stateMutability": "view",
      "type": "function"
    },
    {
      "inputs": [
        {
          "internalType": "uint256",
          "name": "tokenId",
          "type": "uint256"
        },
        {
          "internalType": "uint256",
          "name": "genes",
          "type": "uint256"
        }
      ],
      "name": "generate",
      "outputs": [],
      "stateMutability": "nonpayable",
      "type": "function"
    },
    {
      "inputs": [
        {
          "internalType": "uint256",
          "name": "tokenId",
          "type": "uint256"
        }
      ],
      "name": "getApproved",
      "outputs": [
        {
          "internalType": "address",
          "name": "",
          "type": "address"
        }
      ],
      "stateMutability": "view",
      "type": "function"
    },
    {
      "inputs": [
        {
          "internalType": "uint256",
          "name": "tokenId",
          "type": "uint256"
        }
      ],
      "name": "getNFTDetails",
      "outputs": [
        {
          "components": [
            {
              "internalType": "string",
              "name": "name",
              "type": "string"
            },
            {
              "internalType": "uint256",
              "name": "genes",
              "type": "uint256"
            },
            {
              "internalType": "uint8",
              "name": "genesLength",
              "type": "uint8"
            },
            {
              "components": [
                {
                  "internalType": "enum Collection.TraitType",
                  "name": "traitType",
                  "type": "uint8"
                },
                {
                  "internalType": "uint8",
                  "name": "key",
                  "type": "uint8"
                },
                {
                  "internalType": "uint32",
                  "name": "value",
                  "type": "uint32"
                }
              ],
              "internalType": "struct NFTGenerator.Trait[]",
              "name": "traits",
              "type": "tuple[]"
            }
          ],
          "internalType": "struct NFTGenerator.NFT",
          "name": "",
          "type": "tuple"
        }
      ],
      "stateMutability": "view",
      "type": "function"
    },
    {
      "inputs": [],
      "name": "getTokenURI",
      "outputs": [
        {
          "internalType": "string",
          "name": "result",
          "type": "string"
        }
      ],
      "stateMutability": "view",
      "type": "function"
    },
    {
      "inputs": [
        {
          "internalType": "uint8",
          "name": "traitKey",
          "type": "uint8"
        }
      ],
      "name": "getTraitLabel",
      "outputs": [
        {
          "internalType": "string",
          "name": "",
          "type": "string"
        }
      ],
      "stateMutability": "view",
      "type": "function"
    },
    {
      "inputs": [
        {
          "internalType": "uint8",
          "name": "traitKey",
          "type": "uint8"
        },
        {
          "internalType": "uint8",
          "name": "traitValue",
          "type": "uint8"
        }
      ],
      "name": "getTraitOptionsLabel",
      "outputs": [
        {
          "internalType": "string",
          "name": "",
          "type": "string"
        }
      ],
      "stateMutability": "view",
      "type": "function"
    },
    {
      "inputs": [
        {
          "internalType": "address",
          "name": "owner",
          "type": "address"
        },
        {
          "internalType": "address",
          "name": "operator",
          "type": "address"
        }
      ],
      "name": "isApprovedForAll",
      "outputs": [
        {
          "internalType": "bool",
          "name": "",
          "type": "bool"
        }
      ],
      "stateMutability": "view",
      "type": "function"
    },
    {
      "inputs": [],
      "name": "name",
      "outputs": [
        {
          "internalType": "string",
          "name": "",
          "type": "string"
        }
      ],
      "stateMutability": "view",
      "type": "function"
    },
    {
      "inputs": [],
      "name": "owner",
      "outputs": [
        {
          "internalType": "address",
          "name": "",
          "type": "address"
        }
      ],
      "stateMutability": "view",
      "type": "function"
    },
    {
      "inputs": [
        {
          "internalType": "uint256",
          "name": "tokenId",
          "type": "uint256"
        }
      ],
      "name": "ownerOf",
      "outputs": [
        {
          "internalType": "address",
          "name": "",
          "type": "address"
        }
      ],
      "stateMutability": "view",
      "type": "function"
    },
    {
      "inputs": [],
      "name": "renounceOwnership",
      "outputs": [],
      "stateMutability": "nonpayable",
      "type": "function"
    },
    {
      "inputs": [
        {
          "internalType": "address",
          "name": "to",
          "type": "address"
        },
        {
          "internalType": "string",
          "name": "name",
          "type": "string"
        }
      ],
      "name": "safeMint",
      "outputs": [],
      "stateMutability": "nonpayable",
      "type": "function"
    },
    {
      "inputs": [
        {
          "internalType": "address",
          "name": "to",
          "type": "address"
        },
        {
          "internalType": "uint256",
          "name": "randomNumber",
          "type": "uint256"
        },
        {
          "internalType": "string",
          "name": "name",
          "type": "string"
        }
      ],
      "name": "safeMintTest",
      "outputs": [],
      "stateMutability": "nonpayable",
      "type": "function"
    },
    {
      "inputs": [
        {
          "internalType": "address",
          "name": "from",
          "type": "address"
        },
        {
          "internalType": "address",
          "name": "to",
          "type": "address"
        },
        {
          "internalType": "uint256",
          "name": "tokenId",
          "type": "uint256"
        }
      ],
      "name": "safeTransferFrom",
      "outputs": [],
      "stateMutability": "nonpayable",
      "type": "function"
    },
    {
      "inputs": [
        {
          "internalType": "address",
          "name": "from",
          "type": "address"
        },
        {
          "internalType": "address",
          "name": "to",
          "type": "address"
        },
        {
          "internalType": "uint256",
          "name": "tokenId",
          "type": "uint256"
        },
        {
          "internalType": "bytes",
          "name": "data",
          "type": "bytes"
        }
      ],
      "name": "safeTransferFrom",
      "outputs": [],
      "stateMutability": "nonpayable",
      "type": "function"
    },
    {
      "inputs": [
        {
          "internalType": "address",
          "name": "operator",
          "type": "address"
        },
        {
          "internalType": "bool",
          "name": "approved",
          "type": "bool"
        }
      ],
      "name": "setApprovalForAll",
      "outputs": [],
      "stateMutability": "nonpayable",
      "type": "function"
    },
    {
      "inputs": [
        {
          "internalType": "bytes4",
          "name": "interfaceId",
          "type": "bytes4"
        }
      ],
      "name": "supportsInterface",
      "outputs": [
        {
          "internalType": "bool",
          "name": "",
          "type": "bool"
        }
      ],
      "stateMutability": "view",
      "type": "function"
    },
    {
      "inputs": [],
      "name": "symbol",
      "outputs": [
        {
          "internalType": "string",
          "name": "",
          "type": "string"
        }
      ],
      "stateMutability": "view",
      "type": "function"
    },
    {
      "inputs": [
        {
          "internalType": "uint256",
          "name": "tokenId",
          "type": "uint256"
        }
      ],
      "name": "tokenURI",
      "outputs": [
        {
          "internalType": "string",
          "name": "",
          "type": "string"
        }
      ],
      "stateMutability": "view",
      "type": "function"
    },
    {
      "inputs": [
        {
          "internalType": "address",
          "name": "from",
          "type": "address"
        },
        {
          "internalType": "address",
          "name": "to",
          "type": "address"
        },
        {
          "internalType": "uint256",
          "name": "tokenId",
          "type": "uint256"
        }
      ],
      "name": "transferFrom",
      "outputs": [],
      "stateMutability": "nonpayable",
      "type": "function"
    },
    {
      "inputs": [
        {
          "internalType": "address",
          "name": "newOwner",
          "type": "address"
        }
      ],
      "name": "transferOwnership",
      "outputs": [],
      "stateMutability": "nonpayable",
      "type": "function"
    },
    {
      "inputs": [
        {
          "internalType": "address",
          "name": "nftRandomManagerAddress",
          "type": "address"
        }
      ],
      "name": "updateRandomManager",
      "outputs": [],
      "stateMutability": "nonpayable",
      "type": "function"
    }
  ],
  "bytecode": "0x60806040526040518060400160405280601281526020017f68747470733a2f2f6f757473797374656d730000000000000000000000000000815250600c90816200004a9190620005f3565b503480156200005857600080fd5b50604051620051623803806200516283398181016040528101906200007e919062000744565b826040518060400160405280600881526020017f42617369634e46540000000000000000000000000000000000000000000000008152506040518060400160405280600581526020017f74657374650000000000000000000000000000000000000000000000000000008152508160009081620000fc9190620005f3565b5080600190816200010e9190620005f3565b505050600073ffffffffffffffffffffffffffffffffffffffff168173ffffffffffffffffffffffffffffffffffffffff1603620001865760006040517f1e4fbdf70000000000000000000000000000000000000000000000000000000081526004016200017d9190620007b1565b60405180910390fd5b6200019781620001b360201b60201c565b50620001aa82826200027960201b60201c565b505050620007ce565b6000600660009054906101000a900473ffffffffffffffffffffffffffffffffffffffff16905081600660006101000a81548173ffffffffffffffffffffffffffffffffffffffff021916908373ffffffffffffffffffffffffffffffffffffffff1602179055508173ffffffffffffffffffffffffffffffffffffffff168173ffffffffffffffffffffffffffffffffffffffff167f8be0079c531659141344cd1fd0a4f28419497f9722a3daafe3b4186f6b6457e060405160405180910390a35050565b81600760006101000a81548173ffffffffffffffffffffffffffffffffffffffff021916908373ffffffffffffffffffffffffffffffffffffffff16021790555080600960006101000a81548173ffffffffffffffffffffffffffffffffffffffff021916908373ffffffffffffffffffffffffffffffffffffffff16021790555060405162000309906200036b565b604051809103906000f08015801562000326573d6000803e3d6000fd5b50600860006101000a81548173ffffffffffffffffffffffffffffffffffffffff021916908373ffffffffffffffffffffffffffffffffffffffff1602179055505050565b610a9a80620046c883390190565b600081519050919050565b7f4e487b7100000000000000000000000000000000000000000000000000000000600052604160045260246000fd5b7f4e487b7100000000000000000000000000000000000000000000000000000000600052602260045260246000fd5b60006002820490506001821680620003fb57607f821691505b602082108103620004115762000410620003b3565b5b50919050565b60008190508160005260206000209050919050565b60006020601f8301049050919050565b600082821b905092915050565b6000600883026200047b7fffffffffffffffffffffffffffffffffffffffffffffffffffffffffffffffff826200043c565b6200048786836200043c565b95508019841693508086168417925050509392505050565b6000819050919050565b6000819050919050565b6000620004d4620004ce620004c8846200049f565b620004a9565b6200049f565b9050919050565b6000819050919050565b620004f083620004b3565b62000508620004ff82620004db565b84845462000449565b825550505050565b600090565b6200051f62000510565b6200052c818484620004e5565b505050565b5b8181101562000554576200054860008262000515565b60018101905062000532565b5050565b601f821115620005a3576200056d8162000417565b62000578846200042c565b8101602085101562000588578190505b620005a062000597856200042c565b83018262000531565b50505b505050565b600082821c905092915050565b6000620005c860001984600802620005a8565b1980831691505092915050565b6000620005e38383620005b5565b9150826002028217905092915050565b620005fe8262000379565b67ffffffffffffffff8111156200061a576200061962000384565b5b620006268254620003e2565b6200063382828562000558565b600060209050601f8311600181146200066b576000841562000656578287015190505b620006628582620005d5565b865550620006d2565b601f1984166200067b8662000417565b60005b82811015620006a5578489015182556001820191506020850194506020810190506200067e565b86831015620006c55784890151620006c1601f891682620005b5565b8355505b6001600288020188555050505b505050505050565b600080fd5b600073ffffffffffffffffffffffffffffffffffffffff82169050919050565b60006200070c82620006df565b9050919050565b6200071e81620006ff565b81146200072a57600080fd5b50565b6000815190506200073e8162000713565b92915050565b60008060006060848603121562000760576200075f620006da565b5b600062000770868287016200072d565b935050602062000783868287016200072d565b925050604062000796868287016200072d565b9150509250925092565b620007ab81620006ff565b82525050565b6000602082019050620007c86000830184620007a0565b92915050565b613eea80620007de6000396000f3fe608060405234801561001057600080fd5b50600436106101735760003560e01c806370a08231116100de578063b88d4fde11610097578063d4a1911611610071578063d4a191161461045a578063d868f4c014610478578063e985e9c514610494578063f2fde38b146104c457610173565b8063b88d4fde146103f2578063c87b56dd1461040e578063d204c45e1461043e57610173565b806370a0823114610330578063715018a61461036057806382260f351461036a5780638da5cb5b1461039a57806395d89b41146103b8578063a22cb465146103d657610173565b8063315e351511610130578063315e35151461024a57806342842e0e146102665780634a60f620146102825780634efa897c146102a05780636352211e146102d05780636369aefc1461030057610173565b806301ffc9a71461017857806306fdde03146101a8578063081812fc146101c6578063095ea7b3146101f657806323b872dd14610212578063280d64921461022e575b600080fd5b610192600480360381019061018d91906129ee565b6104e0565b60405161019f9190612a36565b60405180910390f35b6101b06105c2565b6040516101bd9190612ae1565b60405180910390f35b6101e060048036038101906101db9190612b39565b610654565b6040516101ed9190612ba7565b60405180910390f35b610210600480360381019061020b9190612bee565b610670565b005b61022c60048036038101906102279190612c2e565b610686565b005b61024860048036038101906102439190612db6565b610788565b005b610264600480360381019061025f9190612e25565b6107c6565b005b610280600480360381019061027b9190612c2e565b610812565b005b61028a610832565b6040516102979190612e61565b60405180910390f35b6102ba60048036038101906102b59190612eb5565b610838565b6040516102c79190612ae1565b60405180910390f35b6102ea60048036038101906102e59190612b39565b6108e2565b6040516102f79190612ba7565b60405180910390f35b61031a60048036038101906103159190612ee2565b6108f4565b6040516103279190612ae1565b60405180910390f35b61034a60048036038101906103459190612e25565b6109a1565b6040516103579190612e61565b60405180910390f35b610368610a5b565b005b610384600480360381019061037f9190612b39565b610a6f565b604051610391919061317b565b60405180910390f35b6103a2610c2e565b6040516103af9190612ba7565b60405180910390f35b6103c0610c58565b6040516103cd9190612ae1565b60405180910390f35b6103f060048036038101906103eb91906131c9565b610cea565b005b61040c600480360381019061040791906132aa565b610d00565b005b61042860048036038101906104239190612b39565b610d1d565b6040516104359190612ae1565b60405180910390f35b6104586004803603810190610453919061332d565b610d86565b005b610462610dc2565b60405161046f9190612ae1565b60405180910390f35b610492600480360381019061048d9190613389565b610dc7565b005b6104ae60048036038101906104a991906133c9565b610de5565b6040516104bb9190612a36565b60405180910390f35b6104de60048036038101906104d99190612e25565b610e79565b005b60007f80ac58cd000000000000000000000000000000000000000000000000000000007bffffffffffffffffffffffffffffffffffffffffffffffffffffffff1916827bffffffffffffffffffffffffffffffffffffffffffffffffffffffff191614806105ab57507f5b5e139f000000000000000000000000000000000000000000000000000000007bffffffffffffffffffffffffffffffffffffffffffffffffffffffff1916827bffffffffffffffffffffffffffffffffffffffffffffffffffffffff1916145b806105bb57506105ba82610eff565b5b9050919050565b6060600080546105d190613438565b80601f01602080910402602001604051908101604052809291908181526020018280546105fd90613438565b801561064a5780601f1061061f5761010080835404028352916020019161064a565b820191906000526020600020905b81548152906001019060200180831161062d57829003601f168201915b5050505050905090565b600061065f82610f69565b5061066982610ff1565b9050919050565b610682828261067d61102e565b611036565b5050565b600073ffffffffffffffffffffffffffffffffffffffff168273ffffffffffffffffffffffffffffffffffffffff16036106f85760006040517f64a0ae920000000000000000000000000000000000000000000000000000000081526004016106ef9190612ba7565b60405180910390fd5b600061070c838361070761102e565b611048565b90508373ffffffffffffffffffffffffffffffffffffffff168173ffffffffffffffffffffffffffffffffffffffff1614610782578382826040517f64283d7b00000000000000000000000000000000000000000000000000000000815260040161077993929190613469565b60405180910390fd5b50505050565b610790611262565b61079d81600b54846112e9565b6107a983600b5461167f565b600b60008154809291906107bc906134cf565b9190505550505050565b6107ce611262565b80600960006101000a81548173ffffffffffffffffffffffffffffffffffffffff021916908373ffffffffffffffffffffffffffffffffffffffff16021790555050565b61082d83838360405180602001604052806000815250610d00565b505050565b600b5481565b6060600760009054906101000a900473ffffffffffffffffffffffffffffffffffffffff1673ffffffffffffffffffffffffffffffffffffffff16634efa897c836040518263ffffffff1660e01b81526004016108959190613526565b600060405180830381865afa1580156108b2573d6000803e3d6000fd5b505050506040513d6000823e3d601f19601f820116820180604052508101906108db91906135b1565b9050919050565b60006108ed82610f69565b9050919050565b6060600760009054906101000a900473ffffffffffffffffffffffffffffffffffffffff1673ffffffffffffffffffffffffffffffffffffffff166376838b6a84846040518363ffffffff1660e01b81526004016109539291906135fa565b600060405180830381865afa158015610970573d6000803e3d6000fd5b505050506040513d6000823e3d601f19601f8201168201806040525081019061099991906135b1565b905092915050565b60008073ffffffffffffffffffffffffffffffffffffffff168273ffffffffffffffffffffffffffffffffffffffff1603610a145760006040517f89c62b64000000000000000000000000000000000000000000000000000000008152600401610a0b9190612ba7565b60405180910390fd5b600360008373ffffffffffffffffffffffffffffffffffffffff1673ffffffffffffffffffffffffffffffffffffffff168152602001908152602001600020549050919050565b610a63611262565b610a6d600061169d565b565b610a77612957565b600a6000838152602001908152602001600020604051806080016040529081600082018054610aa590613438565b80601f0160208091040260200160405190810160405280929190818152602001828054610ad190613438565b8015610b1e5780601f10610af357610100808354040283529160200191610b1e565b820191906000526020600020905b815481529060010190602001808311610b0157829003601f168201915b50505050508152602001600182015481526020016002820160009054906101000a900460ff1660ff1660ff16815260200160038201805480602002602001604051908101604052809291908181526020016000905b82821015610c1f578382906000526020600020016040518060600160405290816000820160009054906101000a900460ff166001811115610bb757610bb6612fb6565b5b6001811115610bc957610bc8612fb6565b5b81526020016000820160019054906101000a900460ff1660ff1660ff1681526020016000820160029054906101000a900463ffffffff1663ffffffff1663ffffffff168152505081526020019060010190610b73565b50505050815250509050919050565b6000600660009054906101000a900473ffffffffffffffffffffffffffffffffffffffff16905090565b606060018054610c6790613438565b80601f0160208091040260200160405190810160405280929190818152602001828054610c9390613438565b8015610ce05780601f10610cb557610100808354040283529160200191610ce0565b820191906000526020600020905b815481529060010190602001808311610cc357829003601f168201915b5050505050905090565b610cfc610cf561102e565b8383611763565b5050565b610d0b848484610686565b610d17848484846118d2565b50505050565b6060610d2882610f69565b506000610d33611a89565b90506000815111610d535760405180602001604052806000815250610d7e565b80610d5d84611aa0565b604051602001610d6e92919061365f565b6040516020818303038152906040525b915050919050565b610d8e611262565b610d9a600b5482611b6e565b610da682600b5461167f565b600b6000815480929190610db9906134cf565b91905055505050565b606090565b610de16040518060200160405280600081525083836112e9565b5050565b6000600560008473ffffffffffffffffffffffffffffffffffffffff1673ffffffffffffffffffffffffffffffffffffffff16815260200190815260200160002060008373ffffffffffffffffffffffffffffffffffffffff1673ffffffffffffffffffffffffffffffffffffffff16815260200190815260200160002060009054906101000a900460ff16905092915050565b610e81611262565b600073ffffffffffffffffffffffffffffffffffffffff168173ffffffffffffffffffffffffffffffffffffffff1603610ef35760006040517f1e4fbdf7000000000000000000000000000000000000000000000000000000008152600401610eea9190612ba7565b60405180910390fd5b610efc8161169d565b50565b60007f01ffc9a7000000000000000000000000000000000000000000000000000000007bffffffffffffffffffffffffffffffffffffffffffffffffffffffff1916827bffffffffffffffffffffffffffffffffffffffffffffffffffffffff1916149050919050565b600080610f7583611c3d565b9050600073ffffffffffffffffffffffffffffffffffffffff168173ffffffffffffffffffffffffffffffffffffffff1603610fe857826040517f7e273289000000000000000000000000000000000000000000000000000000008152600401610fdf9190612e61565b60405180910390fd5b80915050919050565b60006004600083815260200190815260200160002060009054906101000a900473ffffffffffffffffffffffffffffffffffffffff169050919050565b600033905090565b6110438383836001611c7a565b505050565b60008061105484611c3d565b9050600073ffffffffffffffffffffffffffffffffffffffff168373ffffffffffffffffffffffffffffffffffffffff161461109657611095818486611e3f565b5b600073ffffffffffffffffffffffffffffffffffffffff168173ffffffffffffffffffffffffffffffffffffffff1614611127576110d8600085600080611c7a565b6001600360008373ffffffffffffffffffffffffffffffffffffffff1673ffffffffffffffffffffffffffffffffffffffff168152602001908152602001600020600082825403925050819055505b600073ffffffffffffffffffffffffffffffffffffffff168573ffffffffffffffffffffffffffffffffffffffff16146111aa576001600360008773ffffffffffffffffffffffffffffffffffffffff1673ffffffffffffffffffffffffffffffffffffffff168152602001908152602001600020600082825401925050819055505b846002600086815260200190815260200160002060006101000a81548173ffffffffffffffffffffffffffffffffffffffff021916908373ffffffffffffffffffffffffffffffffffffffff160217905550838573ffffffffffffffffffffffffffffffffffffffff168273ffffffffffffffffffffffffffffffffffffffff167fddf252ad1be2c89b69c2b068fc378daa952ba7f163c4a11628f55a4df523b3ef60405160405180910390a4809150509392505050565b61126a61102e565b73ffffffffffffffffffffffffffffffffffffffff16611288610c2e565b73ffffffffffffffffffffffffffffffffffffffff16146112e7576112ab61102e565b6040517f118cdaa70000000000000000000000000000000000000000000000000000000081526004016112de9190612ba7565b60405180910390fd5b565b6000600a60008481526020019081526020016000209050600080806000875103611320578684600001908161131e919061382f565b505b848460010181905550600860009054906101000a900473ffffffffffffffffffffffffffffffffffffffff1673ffffffffffffffffffffffffffffffffffffffff16639636c762866040518263ffffffff1660e01b81526004016113849190612e61565b602060405180830381865afa1580156113a1573d6000803e3d6000fd5b505050506040513d601f19601f820116820180604052508101906113c59190613916565b8460020160006101000a81548160ff021916908360ff1602179055506000600760009054906101000a900473ffffffffffffffffffffffffffffffffffffffff1673ffffffffffffffffffffffffffffffffffffffff16635249b5166040518163ffffffff1660e01b8152600401602060405180830381865afa158015611450573d6000803e3d6000fd5b505050506040513d601f19601f820116820180604052508101906114749190613916565b905060005b8160ff168160ff161015611674576115428786600760009054906101000a900473ffffffffffffffffffffffffffffffffffffffff1673ffffffffffffffffffffffffffffffffffffffff16635502a7a8856040518263ffffffff1660e01b81526004016114e79190613526565b602060405180830381865afa158015611504573d6000803e3d6000fd5b505050506040513d601f19601f820116820180604052508101906115289190613916565b60ff168960020160009054906101000a900460ff16611f03565b8096508194505050821561166757600760009054906101000a900473ffffffffffffffffffffffffffffffffffffffff1673ffffffffffffffffffffffffffffffffffffffff16635caae61a826040518263ffffffff1660e01b81526004016115ab9190613526565b602060405180830381865afa1580156115c8573d6000803e3d6000fd5b505050506040513d601f19601f820116820180604052508101906115ec9190613968565b935060018081111561160157611600612fb6565b5b84600181111561161457611613612fb6565b5b0361162b57611624858288611f31565b9450611666565b6000600181111561163f5761163e612fb6565b5b84600181111561165257611651612fb6565b5b03611665576116628582886122ba565b94505b5b5b8080600101915050611479565b505050505050505050565b611699828260405180602001604052806000815250612560565b5050565b6000600660009054906101000a900473ffffffffffffffffffffffffffffffffffffffff16905081600660006101000a81548173ffffffffffffffffffffffffffffffffffffffff021916908373ffffffffffffffffffffffffffffffffffffffff1602179055508173ffffffffffffffffffffffffffffffffffffffff168173ffffffffffffffffffffffffffffffffffffffff167f8be0079c531659141344cd1fd0a4f28419497f9722a3daafe3b4186f6b6457e060405160405180910390a35050565b600073ffffffffffffffffffffffffffffffffffffffff168273ffffffffffffffffffffffffffffffffffffffff16036117d457816040517f5b08ba180000000000000000000000000000000000000000000000000000000081526004016117cb9190612ba7565b60405180910390fd5b80600560008573ffffffffffffffffffffffffffffffffffffffff1673ffffffffffffffffffffffffffffffffffffffff16815260200190815260200160002060008473ffffffffffffffffffffffffffffffffffffffff1673ffffffffffffffffffffffffffffffffffffffff16815260200190815260200160002060006101000a81548160ff0219169083151502179055508173ffffffffffffffffffffffffffffffffffffffff168373ffffffffffffffffffffffffffffffffffffffff167f17307eab39ab6107e8899845ad3d59bd9653f200f220920489ca2b5937696c31836040516118c59190612a36565b60405180910390a3505050565b60008373ffffffffffffffffffffffffffffffffffffffff163b1115611a83578273ffffffffffffffffffffffffffffffffffffffff1663150b7a0261191661102e565b8685856040518563ffffffff1660e01b815260040161193894939291906139ea565b6020604051808303816000875af192505050801561197457506040513d601f19601f820116820180604052508101906119719190613a4b565b60015b6119f8573d80600081146119a4576040519150601f19603f3d011682016040523d82523d6000602084013e6119a9565b606091505b5060008151036119f057836040517f64a0ae920000000000000000000000000000000000000000000000000000000081526004016119e79190612ba7565b60405180910390fd5b805181602001fd5b63150b7a0260e01b7bffffffffffffffffffffffffffffffffffffffffffffffffffffffff1916817bffffffffffffffffffffffffffffffffffffffffffffffffffffffff191614611a8157836040517f64a0ae92000000000000000000000000000000000000000000000000000000008152600401611a789190612ba7565b60405180910390fd5b505b50505050565b606060405180602001604052806000815250905090565b606060006001611aaf8461257c565b01905060008167ffffffffffffffff811115611ace57611acd612c8b565b5b6040519080825280601f01601f191660200182016040528015611b005781602001600182028036833780820191505090505b509050600082602001820190505b600115611b63578080600190039150507f3031323334353637383961626364656600000000000000000000000000000000600a86061a8153600a8581611b5757611b56613a78565b5b04945060008503611b0e575b819350505050919050565b6000600a6000848152602001908152602001600020905081816000019081611b96919061382f565b50600960009054906101000a900473ffffffffffffffffffffffffffffffffffffffff1673ffffffffffffffffffffffffffffffffffffffff1663e12acc3430856040518363ffffffff1660e01b8152600401611bf4929190613aa7565b6020604051808303816000875af1158015611c13573d6000803e3d6000fd5b505050506040513d601f19601f82011682018060405250810190611c379190613ae5565b50505050565b60006002600083815260200190815260200160002060009054906101000a900473ffffffffffffffffffffffffffffffffffffffff169050919050565b8080611cb35750600073ffffffffffffffffffffffffffffffffffffffff168273ffffffffffffffffffffffffffffffffffffffff1614155b15611de7576000611cc384610f69565b9050600073ffffffffffffffffffffffffffffffffffffffff168373ffffffffffffffffffffffffffffffffffffffff1614158015611d2e57508273ffffffffffffffffffffffffffffffffffffffff168173ffffffffffffffffffffffffffffffffffffffff1614155b8015611d415750611d3f8184610de5565b155b15611d8357826040517fa9fbf51f000000000000000000000000000000000000000000000000000000008152600401611d7a9190612ba7565b60405180910390fd5b8115611de557838573ffffffffffffffffffffffffffffffffffffffff168273ffffffffffffffffffffffffffffffffffffffff167f8c5be1e5ebec7d5bd14f71427d1e84f3dd0314c0f7b2291e5b200ac8c7c3b92560405160405180910390a45b505b836004600085815260200190815260200160002060006101000a81548173ffffffffffffffffffffffffffffffffffffffff021916908373ffffffffffffffffffffffffffffffffffffffff16021790555050505050565b611e4a8383836126cf565b611efe57600073ffffffffffffffffffffffffffffffffffffffff168373ffffffffffffffffffffffffffffffffffffffff1603611ebf57806040517f7e273289000000000000000000000000000000000000000000000000000000008152600401611eb69190612e61565b60405180910390fd5b81816040517f177e802f000000000000000000000000000000000000000000000000000000008152600401611ef5929190613aa7565b60405180910390fd5b505050565b6000806000611f13878786612790565b8093508192505050611f258582612845565b92505094509492505050565b6000806000806000600760009054906101000a900473ffffffffffffffffffffffffffffffffffffffff1673ffffffffffffffffffffffffffffffffffffffff16637925f513886040518263ffffffff1660e01b8152600401611f949190613526565b6040805180830381865afa158015611fb0573d6000803e3d6000fd5b505050506040513d601f19601f82011682018060405250810190611fd49190613b3e565b91509150600860009054906101000a900473ffffffffffffffffffffffffffffffffffffffff1673ffffffffffffffffffffffffffffffffffffffff1663edd5aaae87600101548a600860009054906101000a900473ffffffffffffffffffffffffffffffffffffffff1673ffffffffffffffffffffffffffffffffffffffff16639636c762866040518263ffffffff1660e01b81526004016120779190613baf565b602060405180830381865afa158015612094573d6000803e3d6000fd5b505050506040513d601f19601f820116820180604052508101906120b89190613916565b8a60020160009054906101000a900460ff166040518563ffffffff1660e01b81526004016120e99493929190613bca565b6040805180830381865afa158015612105573d6000803e3d6000fd5b505050506040513d601f19601f820116820180604052508101906121299190613c0f565b8099508194505050600860009054906101000a900473ffffffffffffffffffffffffffffffffffffffff1673ffffffffffffffffffffffffffffffffffffffff16639f0c167e8383866040518463ffffffff1660e01b815260040161219093929190613c5e565b602060405180830381865afa1580156121ad573d6000803e3d6000fd5b505050506040513d601f19601f820116820180604052508101906121d19190613c95565b93508560030160405180606001604052806001808111156121f5576121f4612fb6565b5b81526020018960ff1681526020018663ffffffff168152509080600181540180825580915050600190039060005260206000200160009091909190915060008201518160000160006101000a81548160ff0219169083600181111561225d5761225c612fb6565b5b021790555060208201518160000160016101000a81548160ff021916908360ff16021790555060408201518160000160026101000a81548163ffffffff021916908363ffffffff1602179055505050879450505050509392505050565b6000806122dd8360010154868560020160009054906101000a900460ff16612790565b8096508192505050600080600760009054906101000a900473ffffffffffffffffffffffffffffffffffffffff1673ffffffffffffffffffffffffffffffffffffffff166354b48164876040518263ffffffff1660e01b81526004016123439190613526565b600060405180830381865afa158015612360573d6000803e3d6000fd5b505050506040513d6000823e3d601f19601f820116820180604052508101906123899190613d8a565b905060008151905060005b818160ff16101561255157600760009054906101000a900473ffffffffffffffffffffffffffffffffffffffff1673ffffffffffffffffffffffffffffffffffffffff1663495253ff89836040518363ffffffff1660e01b81526004016123fc9291906135fa565b602060405180830381865afa158015612419573d6000803e3d6000fd5b505050506040513d601f19601f8201168201806040525081019061243d9190613916565b60ff168461244b9190613dd3565b93506124578486612845565b1561253e578660030160405180606001604052806000600181111561247f5761247e612fb6565b5b81526020018a60ff1681526020018360ff1663ffffffff168152509080600181540180825580915050600190039060005260206000200160009091909190915060008201518160000160006101000a81548160ff021916908360018111156124ea576124e9612fb6565b5b021790555060208201518160000160016101000a81548160ff021916908360ff16021790555060408201518160000160026101000a81548163ffffffff021916908363ffffffff1602179055505050612551565b808061254990613e0b565b915050612394565b50879450505050509392505050565b61256a838361285e565b61257760008484846118d2565b505050565b600080600090507a184f03e93ff9f4daa797ed6e38ed64bf6a1f01000000000000000083106125da577a184f03e93ff9f4daa797ed6e38ed64bf6a1f01000000000000000083816125d0576125cf613a78565b5b0492506040810190505b6d04ee2d6d415b85acef81000000008310612617576d04ee2d6d415b85acef8100000000838161260d5761260c613a78565b5b0492506020810190505b662386f26fc10000831061264657662386f26fc10000838161263c5761263b613a78565b5b0492506010810190505b6305f5e100831061266f576305f5e100838161266557612664613a78565b5b0492506008810190505b612710831061269457612710838161268a57612689613a78565b5b0492506004810190505b606483106126b757606483816126ad576126ac613a78565b5b0492506002810190505b600a83106126c6576001810190505b80915050919050565b60008073ffffffffffffffffffffffffffffffffffffffff168373ffffffffffffffffffffffffffffffffffffffff161415801561278757508273ffffffffffffffffffffffffffffffffffffffff168473ffffffffffffffffffffffffffffffffffffffff16148061274857506127478484610de5565b5b8061278657508273ffffffffffffffffffffffffffffffffffffffff1661276e83610ff1565b73ffffffffffffffffffffffffffffffffffffffff16145b5b90509392505050565b600080600860009054906101000a900473ffffffffffffffffffffffffffffffffffffffff1673ffffffffffffffffffffffffffffffffffffffff1663edd5aaae86866002876040518563ffffffff1660e01b81526004016127f59493929190613e6f565b6040805180830381865afa158015612811573d6000803e3d6000fd5b505050506040513d601f19601f820116820180604052508101906128359190613c0f565b8092508193505050935093915050565b60008263ffffffff168263ffffffff1610905092915050565b600073ffffffffffffffffffffffffffffffffffffffff168273ffffffffffffffffffffffffffffffffffffffff16036128d05760006040517f64a0ae920000000000000000000000000000000000000000000000000000000081526004016128c79190612ba7565b60405180910390fd5b60006128de83836000611048565b9050600073ffffffffffffffffffffffffffffffffffffffff168173ffffffffffffffffffffffffffffffffffffffff16146129525760006040517f73c6ac6e0000000000000000000000000000000000000000000000000000000081526004016129499190612ba7565b60405180910390fd5b505050565b60405180608001604052806060815260200160008152602001600060ff168152602001606081525090565b6000604051905090565b600080fd5b600080fd5b60007fffffffff0000000000000000000000000000000000000000000000000000000082169050919050565b6129cb81612996565b81146129d657600080fd5b50565b6000813590506129e8816129c2565b92915050565b600060208284031215612a0457612a0361298c565b5b6000612a12848285016129d9565b91505092915050565b60008115159050919050565b612a3081612a1b565b82525050565b6000602082019050612a4b6000830184612a27565b92915050565b600081519050919050565b600082825260208201905092915050565b60005b83811015612a8b578082015181840152602081019050612a70565b60008484015250505050565b6000601f19601f8301169050919050565b6000612ab382612a51565b612abd8185612a5c565b9350612acd818560208601612a6d565b612ad681612a97565b840191505092915050565b60006020820190508181036000830152612afb8184612aa8565b905092915050565b6000819050919050565b612b1681612b03565b8114612b2157600080fd5b50565b600081359050612b3381612b0d565b92915050565b600060208284031215612b4f57612b4e61298c565b5b6000612b5d84828501612b24565b91505092915050565b600073ffffffffffffffffffffffffffffffffffffffff82169050919050565b6000612b9182612b66565b9050919050565b612ba181612b86565b82525050565b6000602082019050612bbc6000830184612b98565b92915050565b612bcb81612b86565b8114612bd657600080fd5b50565b600081359050612be881612bc2565b92915050565b60008060408385031215612c0557612c0461298c565b5b6000612c1385828601612bd9565b9250506020612c2485828601612b24565b9150509250929050565b600080600060608486031215612c4757612c4661298c565b5b6000612c5586828701612bd9565b9350506020612c6686828701612bd9565b9250506040612c7786828701612b24565b9150509250925092565b600080fd5b600080fd5b7f4e487b7100000000000000000000000000000000000000000000000000000000600052604160045260246000fd5b612cc382612a97565b810181811067ffffffffffffffff82111715612ce257612ce1612c8b565b5b80604052505050565b6000612cf5612982565b9050612d018282612cba565b919050565b600067ffffffffffffffff821115612d2157612d20612c8b565b5b612d2a82612a97565b9050602081019050919050565b82818337600083830152505050565b6000612d59612d5484612d06565b612ceb565b905082815260208101848484011115612d7557612d74612c86565b5b612d80848285612d37565b509392505050565b600082601f830112612d9d57612d9c612c81565b5b8135612dad848260208601612d46565b91505092915050565b600080600060608486031215612dcf57612dce61298c565b5b6000612ddd86828701612bd9565b9350506020612dee86828701612b24565b925050604084013567ffffffffffffffff811115612e0f57612e0e612991565b5b612e1b86828701612d88565b9150509250925092565b600060208284031215612e3b57612e3a61298c565b5b6000612e4984828501612bd9565b91505092915050565b612e5b81612b03565b82525050565b6000602082019050612e766000830184612e52565b92915050565b600060ff82169050919050565b612e9281612e7c565b8114612e9d57600080fd5b50565b600081359050612eaf81612e89565b92915050565b600060208284031215612ecb57612eca61298c565b5b6000612ed984828501612ea0565b91505092915050565b60008060408385031215612ef957612ef861298c565b5b6000612f0785828601612ea0565b9250506020612f1885828601612ea0565b9150509250929050565b600082825260208201905092915050565b6000612f3e82612a51565b612f488185612f22565b9350612f58818560208601612a6d565b612f6181612a97565b840191505092915050565b612f7581612b03565b82525050565b612f8481612e7c565b82525050565b600081519050919050565b600082825260208201905092915050565b6000819050602082019050919050565b7f4e487b7100000000000000000000000000000000000000000000000000000000600052602160045260246000fd5b60028110612ff657612ff5612fb6565b5b50565b600081905061300782612fe5565b919050565b600061301782612ff9565b9050919050565b6130278161300c565b82525050565b600063ffffffff82169050919050565b6130468161302d565b82525050565b606082016000820151613062600085018261301e565b5060208201516130756020850182612f7b565b506040820151613088604085018261303d565b50505050565b600061309a838361304c565b60608301905092915050565b6000602082019050919050565b60006130be82612f8a565b6130c88185612f95565b93506130d383612fa6565b8060005b838110156131045781516130eb888261308e565b97506130f6836130a6565b9250506001810190506130d7565b5085935050505092915050565b6000608083016000830151848203600086015261312e8282612f33565b91505060208301516131436020860182612f6c565b5060408301516131566040860182612f7b565b506060830151848203606086015261316e82826130b3565b9150508091505092915050565b600060208201905081810360008301526131958184613111565b905092915050565b6131a681612a1b565b81146131b157600080fd5b50565b6000813590506131c38161319d565b92915050565b600080604083850312156131e0576131df61298c565b5b60006131ee85828601612bd9565b92505060206131ff858286016131b4565b9150509250929050565b600067ffffffffffffffff82111561322457613223612c8b565b5b61322d82612a97565b9050602081019050919050565b600061324d61324884613209565b612ceb565b90508281526020810184848401111561326957613268612c86565b5b613274848285612d37565b509392505050565b600082601f83011261329157613290612c81565b5b81356132a184826020860161323a565b91505092915050565b600080600080608085870312156132c4576132c361298c565b5b60006132d287828801612bd9565b94505060206132e387828801612bd9565b93505060406132f487828801612b24565b925050606085013567ffffffffffffffff81111561331557613314612991565b5b6133218782880161327c565b91505092959194509250565b600080604083850312156133445761334361298c565b5b600061335285828601612bd9565b925050602083013567ffffffffffffffff81111561337357613372612991565b5b61337f85828601612d88565b9150509250929050565b600080604083850312156133a05761339f61298c565b5b60006133ae85828601612b24565b92505060206133bf85828601612b24565b9150509250929050565b600080604083850312156133e0576133df61298c565b5b60006133ee85828601612bd9565b92505060206133ff85828601612bd9565b9150509250929050565b7f4e487b7100000000000000000000000000000000000000000000000000000000600052602260045260246000fd5b6000600282049050600182168061345057607f821691505b60208210810361346357613462613409565b5b50919050565b600060608201905061347e6000830186612b98565b61348b6020830185612e52565b6134986040830184612b98565b949350505050565b7f4e487b7100000000000000000000000000000000000000000000000000000000600052601160045260246000fd5b60006134da82612b03565b91507fffffffffffffffffffffffffffffffffffffffffffffffffffffffffffffffff820361350c5761350b6134a0565b5b600182019050919050565b61352081612e7c565b82525050565b600060208201905061353b6000830184613517565b92915050565b600061355461354f84612d06565b612ceb565b9050828152602081018484840111156135705761356f612c86565b5b61357b848285612a6d565b509392505050565b600082601f83011261359857613597612c81565b5b81516135a8848260208601613541565b91505092915050565b6000602082840312156135c7576135c661298c565b5b600082015167ffffffffffffffff8111156135e5576135e4612991565b5b6135f184828501613583565b91505092915050565b600060408201905061360f6000830185613517565b61361c6020830184613517565b9392505050565b600081905092915050565b600061363982612a51565b6136438185613623565b9350613653818560208601612a6d565b80840191505092915050565b600061366b828561362e565b9150613677828461362e565b91508190509392505050565b60008190508160005260206000209050919050565b60006020601f8301049050919050565b600082821b905092915050565b6000600883026136e57fffffffffffffffffffffffffffffffffffffffffffffffffffffffffffffffff826136a8565b6136ef86836136a8565b95508019841693508086168417925050509392505050565b6000819050919050565b600061372c61372761372284612b03565b613707565b612b03565b9050919050565b6000819050919050565b61374683613711565b61375a61375282613733565b8484546136b5565b825550505050565b600090565b61376f613762565b61377a81848461373d565b505050565b5b8181101561379e57613793600082613767565b600181019050613780565b5050565b601f8211156137e3576137b481613683565b6137bd84613698565b810160208510156137cc578190505b6137e06137d885613698565b83018261377f565b50505b505050565b600082821c905092915050565b6000613806600019846008026137e8565b1980831691505092915050565b600061381f83836137f5565b9150826002028217905092915050565b61383882612a51565b67ffffffffffffffff81111561385157613850612c8b565b5b61385b8254613438565b6138668282856137a2565b600060209050601f8311600181146138995760008415613887578287015190505b6138918582613813565b8655506138f9565b601f1984166138a786613683565b60005b828110156138cf578489015182556001820191506020850194506020810190506138aa565b868310156138ec57848901516138e8601f8916826137f5565b8355505b6001600288020188555050505b505050505050565b60008151905061391081612e89565b92915050565b60006020828403121561392c5761392b61298c565b5b600061393a84828501613901565b91505092915050565b6002811061395057600080fd5b50565b60008151905061396281613943565b92915050565b60006020828403121561397e5761397d61298c565b5b600061398c84828501613953565b91505092915050565b600081519050919050565b600082825260208201905092915050565b60006139bc82613995565b6139c681856139a0565b93506139d6818560208601612a6d565b6139df81612a97565b840191505092915050565b60006080820190506139ff6000830187612b98565b613a0c6020830186612b98565b613a196040830185612e52565b8181036060830152613a2b81846139b1565b905095945050505050565b600081519050613a45816129c2565b92915050565b600060208284031215613a6157613a6061298c565b5b6000613a6f84828501613a36565b91505092915050565b7f4e487b7100000000000000000000000000000000000000000000000000000000600052601260045260246000fd5b6000604082019050613abc6000830185612b98565b613ac96020830184612e52565b9392505050565b600081519050613adf81612b0d565b92915050565b600060208284031215613afb57613afa61298c565b5b6000613b0984828501613ad0565b91505092915050565b613b1b8161302d565b8114613b2657600080fd5b50565b600081519050613b3881613b12565b92915050565b60008060408385031215613b5557613b5461298c565b5b6000613b6385828601613b29565b9250506020613b7485828601613b29565b9150509250929050565b6000613b99613b94613b8f8461302d565b613707565b612b03565b9050919050565b613ba981613b7e565b82525050565b6000602082019050613bc46000830184613ba0565b92915050565b6000608082019050613bdf6000830187612e52565b613bec6020830186613517565b613bf96040830185613517565b613c066060830184613517565b95945050505050565b60008060408385031215613c2657613c2561298c565b5b6000613c3485828601613b29565b9250506020613c4585828601613901565b9150509250929050565b613c588161302d565b82525050565b6000606082019050613c736000830186613c4f565b613c806020830185613c4f565b613c8d6040830184613c4f565b949350505050565b600060208284031215613cab57613caa61298c565b5b6000613cb984828501613b29565b91505092915050565b600067ffffffffffffffff821115613cdd57613cdc612c8b565b5b602082029050602081019050919050565b600080fd5b6000613d06613d0184613cc2565b612ceb565b90508083825260208201905060208402830185811115613d2957613d28613cee565b5b835b81811015613d525780613d3e8882613901565b845260208401935050602081019050613d2b565b5050509392505050565b600082601f830112613d7157613d70612c81565b5b8151613d81848260208601613cf3565b91505092915050565b600060208284031215613da057613d9f61298c565b5b600082015167ffffffffffffffff811115613dbe57613dbd612991565b5b613dca84828501613d5c565b91505092915050565b6000613dde8261302d565b9150613de98361302d565b9250828201905063ffffffff811115613e0557613e046134a0565b5b92915050565b6000613e1682612e7c565b915060ff8203613e2957613e286134a0565b5b600182019050919050565b6000819050919050565b6000613e59613e54613e4f84613e34565b613707565b612e7c565b9050919050565b613e6981613e3e565b82525050565b6000608082019050613e846000830187612e52565b613e916020830186613517565b613e9e6040830185613e60565b613eab6060830184613517565b9594505050505056fea2646970667358221220aad8afb9267f4649b6da2aba07401aba5a51641a7ba63d6e26f7b1eb42f946af64736f6c63430008180033608060405234801561001057600080fd5b50610a7a806100206000396000f3fe608060405234801561001057600080fd5b50600436106100575760003560e01c806362d355781461005c5780639636c7621461008c5780639f0c167e146100bc578063edd5aaae146100ec578063f5e480e41461011d575b600080fd5b61007660048036038101906100719190610389565b61014d565b60405161008391906103c5565b60405180910390f35b6100a660048036038101906100a19190610389565b61019c565b6040516100b391906103fc565b60405180910390f35b6100d660048036038101906100d19190610453565b6101e6565b6040516100e391906104b5565b60405180910390f35b610106600480360381019061010191906104fc565b610279565b604051610114929190610563565b60405180910390f35b6101376004803603810190610132919061058c565b610320565b60405161014491906103fc565b60405180910390f35b6000600182116101605760019050610197565b6000600190506000600190505b8381101561019157600a82610182919061060e565b9150808060010191505061016d565b50809150505b919050565b60008082036101ae57600190506101e1565b60005b600083146101dc576001816101c69190610650565b9050600a836101d591906106b4565b92506101b1565b809150505b919050565b60008263ffffffff168463ffffffff1610610236576040517f08c379a000000000000000000000000000000000000000000000000000000000815260040161022d90610742565b60405180910390fd5b6000600185856102469190610762565b610250919061079a565b9050600085828561026191906107d2565b61026b919061079a565b905080925050509392505050565b60008060008460ff16116102c2576040517f08c379a00000000000000000000000000000000000000000000000000000000081526004016102b990610875565b60405180910390fd5b600084866102d09190610650565b600a6102dc91906109c8565b9050600086600a6102ed91906109c8565b82896102f99190610a13565b61030391906106b4565b905080610311888789610320565b93509350505094509492505050565b60008260ff168460ff16106103385760009050610347565b81846103449190610650565b90505b9392505050565b600080fd5b6000819050919050565b61036681610353565b811461037157600080fd5b50565b6000813590506103838161035d565b92915050565b60006020828403121561039f5761039e61034e565b5b60006103ad84828501610374565b91505092915050565b6103bf81610353565b82525050565b60006020820190506103da60008301846103b6565b92915050565b600060ff82169050919050565b6103f6816103e0565b82525050565b600060208201905061041160008301846103ed565b92915050565b600063ffffffff82169050919050565b61043081610417565b811461043b57600080fd5b50565b60008135905061044d81610427565b92915050565b60008060006060848603121561046c5761046b61034e565b5b600061047a8682870161043e565b935050602061048b8682870161043e565b925050604061049c8682870161043e565b9150509250925092565b6104af81610417565b82525050565b60006020820190506104ca60008301846104a6565b92915050565b6104d9816103e0565b81146104e457600080fd5b50565b6000813590506104f6816104d0565b92915050565b600080600080608085870312156105165761051561034e565b5b600061052487828801610374565b9450506020610535878288016104e7565b9350506040610546878288016104e7565b9250506060610557878288016104e7565b91505092959194509250565b600060408201905061057860008301856104a6565b61058560208301846103ed565b9392505050565b6000806000606084860312156105a5576105a461034e565b5b60006105b3868287016104e7565b93505060206105c4868287016104e7565b92505060406105d5868287016104e7565b9150509250925092565b7f4e487b7100000000000000000000000000000000000000000000000000000000600052601160045260246000fd5b600061061982610353565b915061062483610353565b925082820261063281610353565b91508282048414831517610649576106486105df565b5b5092915050565b600061065b826103e0565b9150610666836103e0565b9250828201905060ff81111561067f5761067e6105df565b5b92915050565b7f4e487b7100000000000000000000000000000000000000000000000000000000600052601260045260246000fd5b60006106bf82610353565b91506106ca83610353565b9250826106da576106d9610685565b5b828204905092915050565b600082825260208201905092915050565b7f4d696e206d757374206265206c657373207468616e206d617800000000000000600082015250565b600061072c6019836106e5565b9150610737826106f6565b602082019050919050565b6000602082019050818103600083015261075b8161071f565b9050919050565b600061076d82610417565b915061077883610417565b9250828203905063ffffffff811115610794576107936105df565b5b92915050565b60006107a582610417565b91506107b083610417565b9250828201905063ffffffff8111156107cc576107cb6105df565b5b92915050565b60006107dd82610417565b91506107e883610417565b9250826107f8576107f7610685565b5b828206905092915050565b7f446967697420636f756e74206d7573742062652067726561746572207468616e60008201527f207a65726f000000000000000000000000000000000000000000000000000000602082015250565b600061085f6025836106e5565b915061086a82610803565b604082019050919050565b6000602082019050818103600083015261088e81610852565b9050919050565b60008160011c9050919050565b6000808291508390505b60018511156108ec578086048111156108c8576108c76105df565b5b60018516156108d75780820291505b80810290506108e585610895565b94506108ac565b94509492505050565b60008261090557600190506109c1565b8161091357600090506109c1565b8160018114610929576002811461093357610962565b60019150506109c1565b60ff841115610945576109446105df565b5b8360020a91508482111561095c5761095b6105df565b5b506109c1565b5060208310610133831016604e8410600b84101617156109975782820a905083811115610992576109916105df565b5b6109c1565b6109a484848460016108a2565b925090508184048111156109bb576109ba6105df565b5b81810290505b9392505050565b60006109d382610353565b91506109de836103e0565b9250610a0b7fffffffffffffffffffffffffffffffffffffffffffffffffffffffffffffffff84846108f5565b905092915050565b6000610a1e82610353565b9150610a2983610353565b925082610a3957610a38610685565b5b82820690509291505056fea2646970667358221220282883574f2aac5827546e0a88b6e080c66b9e09332d5513ee6487e14ee9875664736f6c63430008180033",
  "linkReferences": {},
  "deployedLinkReferences": {}
}